{
  "contractName": "MediChain",
  "abi": [
    {
      "constant": true,
      "inputs": [],
      "name": "count",
      "outputs": [
        {
          "name": "",
          "type": "uint256"
        }
      ],
      "payable": false,
      "stateMutability": "view",
      "type": "function",
      "signature": "0x06661abd"
    },
    {
      "constant": true,
      "inputs": [
        {
          "name": "",
          "type": "uint256"
        }
      ],
      "name": "data",
      "outputs": [
        {
          "name": "id",
          "type": "uint256"
        },
        {
          "name": "record",
          "type": "string"
        }
      ],
      "payable": false,
      "stateMutability": "view",
      "type": "function",
      "signature": "0xf0ba8440"
    },
    {
      "inputs": [],
      "payable": false,
      "stateMutability": "nonpayable",
      "type": "constructor",
      "signature": "constructor"
    },
    {
      "constant": false,
      "inputs": [
        {
          "name": "id",
          "type": "uint256"
        },
        {
          "name": "_record",
          "type": "string"
        }
      ],
      "name": "create_record",
      "outputs": [],
      "payable": false,
      "stateMutability": "nonpayable",
      "type": "function",
      "signature": "0x4de8cf7b"
    }
  ],
  "bytecode": "0x60806040526000805534801561001457600080fd5b506100656000546040805190810160405280601681526020017f5468652047656e6973697320626c6f636b20646174610000000000000000000081525061006a640100000000026401000000009004565b610155565b604080518082018252838152602080820184815260008054815260018084529490208351815590518051939491936100aa939285019291909101906100ba565b5050600080546001019055505050565b828054600181600116156101000203166002900490600052602060002090601f016020900481019282601f106100fb57805160ff1916838001178555610128565b82800160010185558215610128579182015b8281111561012857825182559160200191906001019061010d565b50610134929150610138565b5090565b61015291905b80821115610134576000815560010161013e565b90565b6103aa806101646000396000f3fe6080604052600436106100565763ffffffff7c010000000000000000000000000000000000000000000000000000000060003504166306661abd811461005b5780634de8cf7b14610082578063f0ba84401461013e575b600080fd5b34801561006757600080fd5b506100706101e7565b60408051918252519081900360200190f35b34801561008e57600080fd5b5061013c600480360360408110156100a557600080fd5b813591908101906040810160208201356401000000008111156100c757600080fd5b8201836020820111156100d957600080fd5b803590602001918460018302840111640100000000831117156100fb57600080fd5b91908080601f0160208091040260200160405190810160405280939291908181526020018383808284376000920191909152509295506101ed945050505050565b005b34801561014a57600080fd5b506101686004803603602081101561016157600080fd5b503561023d565b6040518083815260200180602001828103825283818151815260200191508051906020019080838360005b838110156101ab578181015183820152602001610193565b50505050905090810190601f1680156101d85780820380516001836020036101000a031916815260200191505b50935050505060405180910390f35b60005481565b6040805180820182528381526020808201848152600080548152600180845294902083518155905180519394919361022d939285019291909101906102e3565b5050600080546001019055505050565b600160208181526000928352604092839020805481840180548651600296821615610100026000190190911695909504601f810185900485028601850190965285855290949193929091908301828280156102d95780601f106102ae576101008083540402835291602001916102d9565b820191906000526020600020905b8154815290600101906020018083116102bc57829003601f168201915b5050505050905082565b828054600181600116156101000203166002900490600052602060002090601f016020900481019282601f1061032457805160ff1916838001178555610351565b82800160010185558215610351579182015b82811115610351578251825591602001919060010190610336565b5061035d929150610361565b5090565b61037b91905b8082111561035d5760008155600101610367565b9056fea165627a7a723058202ef6633a6d262732f3c2efb4d39d619e822f7ee12231a972287795bf2c9f9c7d0029",
  "source": "pragma solidity ^0.5.0;\r\n\r\ncontract MediChain{\r\n    \r\n    uint public count = 0;\r\n    struct Data{\r\n        uint id;\r\n        string record;\r\n    }\r\n    \r\n    mapping(uint => Data) public data;\r\n    \r\n    constructor() public{\r\n        create_record(count , \"The Genisis block data\");\r\n    }\r\n    \r\n    function create_record(uint id , string memory _record)public{\r\n        \r\n        data[count] = Data(id , _record);\r\n        count++;\r\n    }   \r\n    \r\n}",
  "sourcePath": "D:/Code/Truffle/medichain/contracts/MediChain.sol",
  "compiler": {
    "name": "solc",
    "version": "0.5.0+commit.1d4f565a.Emscripten.clang"
  },
  "schemaVersion": "3.0.1",
  "updatedAt": "2021-04-29T12:43:43.371Z",
  "devdoc": {
    "methods": {}
  },
  "userdoc": {
    "methods": {}
  }
}