{
  "contractName": "MediChain",
  "abi": [
    {
      "constant": true,
      "inputs": [],
      "name": "count",
      "outputs": [
        {
          "name": "",
          "type": "uint256"
        }
      ],
      "payable": false,
      "stateMutability": "view",
      "type": "function",
      "signature": "0x06661abd"
    },
    {
      "constant": true,
      "inputs": [
        {
          "name": "",
          "type": "uint256"
        }
      ],
      "name": "data",
      "outputs": [
        {
          "name": "id",
          "type": "uint256"
        },
        {
          "name": "record",
          "type": "string"
        }
      ],
      "payable": false,
      "stateMutability": "view",
      "type": "function",
      "signature": "0xf0ba8440"
    },
    {
      "inputs": [],
      "payable": false,
      "stateMutability": "nonpayable",
      "type": "constructor",
      "signature": "constructor"
    },
    {
      "anonymous": false,
      "inputs": [
        {
          "indexed": false,
          "name": "id",
          "type": "uint256"
        },
        {
          "indexed": false,
          "name": "record",
          "type": "string"
        }
      ],
      "name": "rec_created",
      "type": "event",
      "signature": "0x66944fc92ff07ac5cbcaf9ab2cdd08a7c34cf3afc945cf9778f6e8c1e4b4f944"
    },
    {
      "constant": false,
      "inputs": [
        {
          "name": "id",
          "type": "uint256"
        },
        {
          "name": "_record",
          "type": "string"
        }
      ],
      "name": "create_record",
      "outputs": [],
      "payable": false,
      "stateMutability": "nonpayable",
      "type": "function",
      "signature": "0x4de8cf7b"
    }
  ],
  "bytecode": "0x60806040526000805534801561001457600080fd5b506100656000546040805190810160405280601681526020017f5468652047656e6973697320626c6f636b20646174610000000000000000000081525061006a640100000000026401000000009004565b6101fb565b604080518082018252838152602080820184815260008054815260018084529490208351815590518051939491936100aa93928501929190910190610160565b50506000805460010180825560408051828152602080820183815287519383019390935286517f66944fc92ff07ac5cbcaf9ab2cdd08a7c34cf3afc945cf9778f6e8c1e4b4f94496509394879492939260608501928601918190849084905b83811015610121578181015183820152602001610109565b50505050905090810190601f16801561014e5780820380516001836020036101000a031916815260200191505b50935050505060405180910390a15050565b828054600181600116156101000203166002900490600052602060002090601f016020900481019282601f106101a157805160ff19168380011785556101ce565b828001600101855582156101ce579182015b828111156101ce5782518255916020019190600101906101b3565b506101da9291506101de565b5090565b6101f891905b808211156101da57600081556001016101e4565b90565b6104508061020a6000396000f3fe6080604052600436106100565763ffffffff7c010000000000000000000000000000000000000000000000000000000060003504166306661abd811461005b5780634de8cf7b14610082578063f0ba84401461013e575b600080fd5b34801561006757600080fd5b506100706101e7565b60408051918252519081900360200190f35b34801561008e57600080fd5b5061013c600480360360408110156100a557600080fd5b813591908101906040810160208201356401000000008111156100c757600080fd5b8201836020820111156100d957600080fd5b803590602001918460018302840111640100000000831117156100fb57600080fd5b91908080601f0160208091040260200160405190810160405280939291908181526020018383808284376000920191909152509295506101ed945050505050565b005b34801561014a57600080fd5b506101686004803603602081101561016157600080fd5b50356102e3565b6040518083815260200180602001828103825283818151815260200191508051906020019080838360005b838110156101ab578181015183820152602001610193565b50505050905090810190601f1680156101d85780820380516001836020036101000a031916815260200191505b50935050505060405180910390f35b60005481565b6040805180820182528381526020808201848152600080548152600180845294902083518155905180519394919361022d93928501929190910190610389565b50506000805460010180825560408051828152602080820183815287519383019390935286517f66944fc92ff07ac5cbcaf9ab2cdd08a7c34cf3afc945cf9778f6e8c1e4b4f94496509394879492939260608501928601918190849084905b838110156102a457818101518382015260200161028c565b50505050905090810190601f1680156102d15780820380516001836020036101000a031916815260200191505b50935050505060405180910390a15050565b600160208181526000928352604092839020805481840180548651600296821615610100026000190190911695909504601f8101859004850286018501909652858552909491939290919083018282801561037f5780601f106103545761010080835404028352916020019161037f565b820191906000526020600020905b81548152906001019060200180831161036257829003601f168201915b5050505050905082565b828054600181600116156101000203166002900490600052602060002090601f016020900481019282601f106103ca57805160ff19168380011785556103f7565b828001600101855582156103f7579182015b828111156103f75782518255916020019190600101906103dc565b50610403929150610407565b5090565b61042191905b80821115610403576000815560010161040d565b9056fea165627a7a7230582006cc0727bb0884baa1172357a8f3c0b95ae7df004cdb0a96a92362bccfc09e630029",
  "source": "pragma solidity ^0.5.0;\r\n\r\ncontract MediChain{\r\n    uint public count = 0;\r\n\r\n    struct Data{\r\n        uint id;\r\n        string record;\r\n    }\r\n    \r\n    mapping(uint => Data) public data;\r\n    \r\n    event rec_created(\r\n        uint id,\r\n        string record\r\n    );\r\n    constructor() public{\r\n        create_record(count , \"The Genisis block data\");\r\n    }\r\n   \r\n    function create_record(uint id , string memory _record)public{\r\n        data[count] = Data(id , _record);\r\n        count++;\r\n        emit rec_created(count , _record);\r\n    }   \r\n    \r\n}",
  "sourcePath": "D:/Code/Truffle/medichain/contracts/MediChain.sol",
  "compiler": {
    "name": "solc",
    "version": "0.5.0+commit.1d4f565a.Emscripten.clang"
  },
  "schemaVersion": "3.0.1",
  "updatedAt": "2021-04-29T20:51:09.912Z",
  "devdoc": {
    "methods": {}
  },
  "userdoc": {
    "methods": {}
  }
}